{
  "address": "0xF9bF05Ac06963ffFb1937876300a4A953307014C",
  "abi": [
    {
      "inputs": [],
      "stateMutability": "nonpayable",
      "type": "constructor"
    },
    {
      "anonymous": false,
      "inputs": [
        {
          "indexed": true,
          "internalType": "address",
          "name": "owner",
          "type": "address"
        },
        {
          "indexed": true,
          "internalType": "address",
          "name": "approved",
          "type": "address"
        },
        {
          "indexed": true,
          "internalType": "uint256",
          "name": "tokenId",
          "type": "uint256"
        }
      ],
      "name": "Approval",
      "type": "event"
    },
    {
      "anonymous": false,
      "inputs": [
        {
          "indexed": true,
          "internalType": "address",
          "name": "owner",
          "type": "address"
        },
        {
          "indexed": true,
          "internalType": "address",
          "name": "operator",
          "type": "address"
        },
        {
          "indexed": false,
          "internalType": "bool",
          "name": "approved",
          "type": "bool"
        }
      ],
      "name": "ApprovalForAll",
      "type": "event"
    },
    {
      "anonymous": false,
      "inputs": [
        {
          "indexed": true,
          "internalType": "uint256",
          "name": "tokenId",
          "type": "uint256"
        },
        {
          "indexed": false,
          "internalType": "string",
          "name": "tokenURI",
          "type": "string"
        }
      ],
      "name": "CreatedSVGNFT",
      "type": "event"
    },
    {
      "anonymous": false,
      "inputs": [
        {
          "indexed": true,
          "internalType": "address",
          "name": "from",
          "type": "address"
        },
        {
          "indexed": true,
          "internalType": "address",
          "name": "to",
          "type": "address"
        },
        {
          "indexed": true,
          "internalType": "uint256",
          "name": "tokenId",
          "type": "uint256"
        }
      ],
      "name": "Transfer",
      "type": "event"
    },
    {
      "inputs": [
        {
          "internalType": "address",
          "name": "to",
          "type": "address"
        },
        {
          "internalType": "uint256",
          "name": "tokenId",
          "type": "uint256"
        }
      ],
      "name": "approve",
      "outputs": [],
      "stateMutability": "nonpayable",
      "type": "function"
    },
    {
      "inputs": [
        {
          "internalType": "address",
          "name": "owner",
          "type": "address"
        }
      ],
      "name": "balanceOf",
      "outputs": [
        {
          "internalType": "uint256",
          "name": "",
          "type": "uint256"
        }
      ],
      "stateMutability": "view",
      "type": "function"
    },
    {
      "inputs": [
        {
          "internalType": "string",
          "name": "_svg",
          "type": "string"
        }
      ],
      "name": "create",
      "outputs": [],
      "stateMutability": "nonpayable",
      "type": "function"
    },
    {
      "inputs": [
        {
          "internalType": "string",
          "name": "_imageURI",
          "type": "string"
        }
      ],
      "name": "formatTokenURI",
      "outputs": [
        {
          "internalType": "string",
          "name": "",
          "type": "string"
        }
      ],
      "stateMutability": "pure",
      "type": "function"
    },
    {
      "inputs": [
        {
          "internalType": "uint256",
          "name": "tokenId",
          "type": "uint256"
        }
      ],
      "name": "getApproved",
      "outputs": [
        {
          "internalType": "address",
          "name": "",
          "type": "address"
        }
      ],
      "stateMutability": "view",
      "type": "function"
    },
    {
      "inputs": [
        {
          "internalType": "address",
          "name": "owner",
          "type": "address"
        },
        {
          "internalType": "address",
          "name": "operator",
          "type": "address"
        }
      ],
      "name": "isApprovedForAll",
      "outputs": [
        {
          "internalType": "bool",
          "name": "",
          "type": "bool"
        }
      ],
      "stateMutability": "view",
      "type": "function"
    },
    {
      "inputs": [],
      "name": "name",
      "outputs": [
        {
          "internalType": "string",
          "name": "",
          "type": "string"
        }
      ],
      "stateMutability": "view",
      "type": "function"
    },
    {
      "inputs": [
        {
          "internalType": "uint256",
          "name": "tokenId",
          "type": "uint256"
        }
      ],
      "name": "ownerOf",
      "outputs": [
        {
          "internalType": "address",
          "name": "",
          "type": "address"
        }
      ],
      "stateMutability": "view",
      "type": "function"
    },
    {
      "inputs": [
        {
          "internalType": "address",
          "name": "from",
          "type": "address"
        },
        {
          "internalType": "address",
          "name": "to",
          "type": "address"
        },
        {
          "internalType": "uint256",
          "name": "tokenId",
          "type": "uint256"
        }
      ],
      "name": "safeTransferFrom",
      "outputs": [],
      "stateMutability": "nonpayable",
      "type": "function"
    },
    {
      "inputs": [
        {
          "internalType": "address",
          "name": "from",
          "type": "address"
        },
        {
          "internalType": "address",
          "name": "to",
          "type": "address"
        },
        {
          "internalType": "uint256",
          "name": "tokenId",
          "type": "uint256"
        },
        {
          "internalType": "bytes",
          "name": "_data",
          "type": "bytes"
        }
      ],
      "name": "safeTransferFrom",
      "outputs": [],
      "stateMutability": "nonpayable",
      "type": "function"
    },
    {
      "inputs": [
        {
          "internalType": "address",
          "name": "operator",
          "type": "address"
        },
        {
          "internalType": "bool",
          "name": "approved",
          "type": "bool"
        }
      ],
      "name": "setApprovalForAll",
      "outputs": [],
      "stateMutability": "nonpayable",
      "type": "function"
    },
    {
      "inputs": [
        {
          "internalType": "bytes4",
          "name": "interfaceId",
          "type": "bytes4"
        }
      ],
      "name": "supportsInterface",
      "outputs": [
        {
          "internalType": "bool",
          "name": "",
          "type": "bool"
        }
      ],
      "stateMutability": "view",
      "type": "function"
    },
    {
      "inputs": [
        {
          "internalType": "string",
          "name": "_svg",
          "type": "string"
        }
      ],
      "name": "svgToImageURI",
      "outputs": [
        {
          "internalType": "string",
          "name": "",
          "type": "string"
        }
      ],
      "stateMutability": "pure",
      "type": "function"
    },
    {
      "inputs": [],
      "name": "symbol",
      "outputs": [
        {
          "internalType": "string",
          "name": "",
          "type": "string"
        }
      ],
      "stateMutability": "view",
      "type": "function"
    },
    {
      "inputs": [],
      "name": "tokenCounter",
      "outputs": [
        {
          "internalType": "uint256",
          "name": "",
          "type": "uint256"
        }
      ],
      "stateMutability": "view",
      "type": "function"
    },
    {
      "inputs": [
        {
          "internalType": "uint256",
          "name": "tokenId",
          "type": "uint256"
        }
      ],
      "name": "tokenURI",
      "outputs": [
        {
          "internalType": "string",
          "name": "",
          "type": "string"
        }
      ],
      "stateMutability": "view",
      "type": "function"
    },
    {
      "inputs": [
        {
          "internalType": "address",
          "name": "from",
          "type": "address"
        },
        {
          "internalType": "address",
          "name": "to",
          "type": "address"
        },
        {
          "internalType": "uint256",
          "name": "tokenId",
          "type": "uint256"
        }
      ],
      "name": "transferFrom",
      "outputs": [],
      "stateMutability": "nonpayable",
      "type": "function"
    }
  ],
  "transactionHash": "0xbcb7de20d5f0f4f2419fe7b78048246f0add4644c6527b89f0f0c5b0eeb02625",
  "args": [],
  "solcInputHash": "4c9676a6d86c7e3b58ada10169bc2ce3",
  "bytecode": "0x60806040523480156200001157600080fd5b506040518060400160405280600781526020017f535647204e4654000000000000000000000000000000000000000000000000008152506040518060400160405280600681526020017f7376674e46540000000000000000000000000000000000000000000000000000815250816000908051906020019062000096929190620000c0565b508060019080519060200190620000af929190620000c0565b5050506000600781905550620001d5565b828054620000ce906200019f565b90600052602060002090601f016020900481019282620000f257600085556200013e565b82601f106200010d57805160ff19168380011785556200013e565b828001600101855582156200013e579182015b828111156200013d57825182559160200191906001019062000120565b5b5090506200014d919062000151565b5090565b5b808211156200016c57600081600090555060010162000152565b5090565b7f4e487b7100000000000000000000000000000000000000000000000000000000600052602260045260246000fd5b60006002820490506001821680620001b857607f821691505b60208210811415620001cf57620001ce62000170565b5b50919050565b61320480620001e56000396000f3fe608060405234801561001057600080fd5b506004361061010b5760003560e01c806370a08231116100a2578063b6a46b3b11610071578063b6a46b3b146102dc578063b88d4fde146102f8578063c87b56dd14610314578063d082e38114610344578063e985e9c5146103625761010b565b806370a082311461024257806371aee1931461027257806395d89b41146102a2578063a22cb465146102c05761010b565b806323b872dd116100de57806323b872dd146101aa57806330d871c6146101c657806342842e0e146101f65780636352211e146102125761010b565b806301ffc9a71461011057806306fdde0314610140578063081812fc1461015e578063095ea7b31461018e575b600080fd5b61012a60048036038101906101259190611cd8565b610392565b6040516101379190611d20565b60405180910390f35b610148610474565b6040516101559190611dd4565b60405180910390f35b61017860048036038101906101739190611e2c565b610506565b6040516101859190611e9a565b60405180910390f35b6101a860048036038101906101a39190611ee1565b61058b565b005b6101c460048036038101906101bf9190611f21565b6106a3565b005b6101e060048036038101906101db91906120a9565b610703565b6040516101ed9190611dd4565b60405180910390f35b610210600480360381019061020b9190611f21565b61079c565b005b61022c60048036038101906102279190611e2c565b6107bc565b6040516102399190611e9a565b60405180910390f35b61025c600480360381019061025791906120f2565b61086e565b604051610269919061212e565b60405180910390f35b61028c600480360381019061028791906120a9565b610926565b6040516102999190611dd4565b60405180910390f35b6102aa6109b3565b6040516102b79190611dd4565b60405180910390f35b6102da60048036038101906102d59190612175565b610a45565b005b6102f660048036038101906102f191906120a9565b610bc6565b005b610312600480360381019061030d9190612256565b610c4c565b005b61032e60048036038101906103299190611e2c565b610cae565b60405161033b9190611dd4565b60405180910390f35b61034c610e00565b604051610359919061212e565b60405180910390f35b61037c600480360381019061037791906122d9565b610e06565b6040516103899190611d20565b60405180910390f35b60007f80ac58cd000000000000000000000000000000000000000000000000000000007bffffffffffffffffffffffffffffffffffffffffffffffffffffffff1916827bffffffffffffffffffffffffffffffffffffffffffffffffffffffff1916148061045d57507f5b5e139f000000000000000000000000000000000000000000000000000000007bffffffffffffffffffffffffffffffffffffffffffffffffffffffff1916827bffffffffffffffffffffffffffffffffffffffffffffffffffffffff1916145b8061046d575061046c82610e9a565b5b9050919050565b60606000805461048390612348565b80601f01602080910402602001604051908101604052809291908181526020018280546104af90612348565b80156104fc5780601f106104d1576101008083540402835291602001916104fc565b820191906000526020600020905b8154815290600101906020018083116104df57829003601f168201915b5050505050905090565b600061051182610f04565b610550576040517f08c379a0000000000000000000000000000000000000000000000000000000008152600401610547906123ec565b60405180910390fd5b6004600083815260200190815260200160002060009054906101000a900473ffffffffffffffffffffffffffffffffffffffff169050919050565b6000610596826107bc565b90508073ffffffffffffffffffffffffffffffffffffffff168373ffffffffffffffffffffffffffffffffffffffff161415610607576040517f08c379a00000000000000000000000000000000000000000000000000000000081526004016105fe9061247e565b60405180910390fd5b8073ffffffffffffffffffffffffffffffffffffffff16610626610f70565b73ffffffffffffffffffffffffffffffffffffffff16148061065557506106548161064f610f70565b610e06565b5b610694576040517f08c379a000000000000000000000000000000000000000000000000000000000815260040161068b90612510565b60405180910390fd5b61069e8383610f78565b505050565b6106b46106ae610f70565b82611031565b6106f3576040517f08c379a00000000000000000000000000000000000000000000000000000000081526004016106ea906125a2565b60405180910390fd5b6106fe83838361110f565b505050565b606060006040518060400160405280601a81526020017f646174613a696d6167652f7376672b786d6c3b6261736536342c000000000000815250905060006107698460405160200161075591906125fe565b60405160208183030381529060405261136b565b905060008282604051602001610780929190612615565b6040516020818303038152906040529050809350505050919050565b6107b783838360405180602001604052806000815250610c4c565b505050565b6000806002600084815260200190815260200160002060009054906101000a900473ffffffffffffffffffffffffffffffffffffffff169050600073ffffffffffffffffffffffffffffffffffffffff168173ffffffffffffffffffffffffffffffffffffffff161415610865576040517f08c379a000000000000000000000000000000000000000000000000000000000815260040161085c906126ab565b60405180910390fd5b80915050919050565b60008073ffffffffffffffffffffffffffffffffffffffff168273ffffffffffffffffffffffffffffffffffffffff1614156108df576040517f08c379a00000000000000000000000000000000000000000000000000000000081526004016108d69061273d565b60405180910390fd5b600360008373ffffffffffffffffffffffffffffffffffffffff1673ffffffffffffffffffffffffffffffffffffffff168152602001908152602001600020549050919050565b606060006040518060400160405280601d81526020017f646174613a6170706c69636174696f6e2f6a736f6e3b6261736536342c00000081525090508061098b8460405160200161097791906128ff565b60405160208183030381529060405261136b565b60405160200161099c929190612615565b604051602081830303815290604052915050919050565b6060600180546109c290612348565b80601f01602080910402602001604051908101604052809291908181526020018280546109ee90612348565b8015610a3b5780601f10610a1057610100808354040283529160200191610a3b565b820191906000526020600020905b815481529060010190602001808311610a1e57829003601f168201915b5050505050905090565b610a4d610f70565b73ffffffffffffffffffffffffffffffffffffffff168273ffffffffffffffffffffffffffffffffffffffff161415610abb576040517f08c379a0000000000000000000000000000000000000000000000000000000008152600401610ab290612999565b60405180910390fd5b8060056000610ac8610f70565b73ffffffffffffffffffffffffffffffffffffffff1673ffffffffffffffffffffffffffffffffffffffff16815260200190815260200160002060008473ffffffffffffffffffffffffffffffffffffffff1673ffffffffffffffffffffffffffffffffffffffff16815260200190815260200160002060006101000a81548160ff0219169083151502179055508173ffffffffffffffffffffffffffffffffffffffff16610b75610f70565b73ffffffffffffffffffffffffffffffffffffffff167f17307eab39ab6107e8899845ad3d59bd9653f200f220920489ca2b5937696c3183604051610bba9190611d20565b60405180910390a35050565b610bd2336007546114e4565b6000610bdd82610703565b90506000610bea82610926565b9050610bf860075482611502565b6007547ff5acc616aa8ecd00e5d76674d7812f9c3c3571d662c9fba4499deefa6d0be12d82604051610c2a9190611dd4565b60405180910390a26001600754610c4191906129e8565b600781905550505050565b610c5d610c57610f70565b83611031565b610c9c576040517f08c379a0000000000000000000000000000000000000000000000000000000008152600401610c93906125a2565b60405180910390fd5b610ca884848484611576565b50505050565b6060610cb982610f04565b610cf8576040517f08c379a0000000000000000000000000000000000000000000000000000000008152600401610cef90612ab0565b60405180910390fd5b6000600660008481526020019081526020016000208054610d1890612348565b80601f0160208091040260200160405190810160405280929190818152602001828054610d4490612348565b8015610d915780601f10610d6657610100808354040283529160200191610d91565b820191906000526020600020905b815481529060010190602001808311610d7457829003601f168201915b505050505090506000610da26115d2565b9050600081511415610db8578192505050610dfb565b600082511115610ded578082604051602001610dd5929190612615565b60405160208183030381529060405292505050610dfb565b610df6846115e9565b925050505b919050565b60075481565b6000600560008473ffffffffffffffffffffffffffffffffffffffff1673ffffffffffffffffffffffffffffffffffffffff16815260200190815260200160002060008373ffffffffffffffffffffffffffffffffffffffff1673ffffffffffffffffffffffffffffffffffffffff16815260200190815260200160002060009054906101000a900460ff16905092915050565b60007f01ffc9a7000000000000000000000000000000000000000000000000000000007bffffffffffffffffffffffffffffffffffffffffffffffffffffffff1916827bffffffffffffffffffffffffffffffffffffffffffffffffffffffff1916149050919050565b60008073ffffffffffffffffffffffffffffffffffffffff166002600084815260200190815260200160002060009054906101000a900473ffffffffffffffffffffffffffffffffffffffff1673ffffffffffffffffffffffffffffffffffffffff1614159050919050565b600033905090565b816004600083815260200190815260200160002060006101000a81548173ffffffffffffffffffffffffffffffffffffffff021916908373ffffffffffffffffffffffffffffffffffffffff160217905550808273ffffffffffffffffffffffffffffffffffffffff16610feb836107bc565b73ffffffffffffffffffffffffffffffffffffffff167f8c5be1e5ebec7d5bd14f71427d1e84f3dd0314c0f7b2291e5b200ac8c7c3b92560405160405180910390a45050565b600061103c82610f04565b61107b576040517f08c379a000000000000000000000000000000000000000000000000000000000815260040161107290612b42565b60405180910390fd5b6000611086836107bc565b90508073ffffffffffffffffffffffffffffffffffffffff168473ffffffffffffffffffffffffffffffffffffffff1614806110f557508373ffffffffffffffffffffffffffffffffffffffff166110dd84610506565b73ffffffffffffffffffffffffffffffffffffffff16145b8061110657506111058185610e06565b5b91505092915050565b8273ffffffffffffffffffffffffffffffffffffffff1661112f826107bc565b73ffffffffffffffffffffffffffffffffffffffff1614611185576040517f08c379a000000000000000000000000000000000000000000000000000000000815260040161117c90612bd4565b60405180910390fd5b600073ffffffffffffffffffffffffffffffffffffffff168273ffffffffffffffffffffffffffffffffffffffff1614156111f5576040517f08c379a00000000000000000000000000000000000000000000000000000000081526004016111ec90612c66565b60405180910390fd5b611200838383611690565b61120b600082610f78565b6001600360008573ffffffffffffffffffffffffffffffffffffffff1673ffffffffffffffffffffffffffffffffffffffff168152602001908152602001600020600082825461125b9190612c86565b925050819055506001600360008473ffffffffffffffffffffffffffffffffffffffff1673ffffffffffffffffffffffffffffffffffffffff16815260200190815260200160002060008282546112b291906129e8565b92505081905550816002600083815260200190815260200160002060006101000a81548173ffffffffffffffffffffffffffffffffffffffff021916908373ffffffffffffffffffffffffffffffffffffffff160217905550808273ffffffffffffffffffffffffffffffffffffffff168473ffffffffffffffffffffffffffffffffffffffff167fddf252ad1be2c89b69c2b068fc378daa952ba7f163c4a11628f55a4df523b3ef60405160405180910390a4505050565b606060008251141561138e576040518060200160405280600081525090506114df565b600060405180606001604052806040815260200161318f60409139905060006003600285516113bd91906129e8565b6113c79190612ce9565b60046113d39190612d1a565b905060006020826113e491906129e8565b67ffffffffffffffff8111156113fd576113fc611f7e565b5b6040519080825280601f01601f19166020018201604052801561142f5781602001600182028036833780820191505090505b509050818152600183018586518101602084015b8183101561149e576003830192508251603f8160121c168501518253600182019150603f81600c1c168501518253600182019150603f8160061c168501518253600182019150603f8116850151825360018201915050611443565b6003895106600181146114b857600281146114c8576114d3565b613d3d60f01b60028303526114d3565b603d60f81b60018303525b50505050508093505050505b919050565b6114fe828260405180602001604052806000815250611695565b5050565b61150b82610f04565b61154a576040517f08c379a000000000000000000000000000000000000000000000000000000000815260040161154190612de6565b60405180910390fd5b80600660008481526020019081526020016000209080519060200190611571929190611bc9565b505050565b61158184848461110f565b61158d848484846116f0565b6115cc576040517f08c379a00000000000000000000000000000000000000000000000000000000081526004016115c390612e78565b60405180910390fd5b50505050565b606060405180602001604052806000815250905090565b60606115f482610f04565b611633576040517f08c379a000000000000000000000000000000000000000000000000000000000815260040161162a90612f0a565b60405180910390fd5b600061163d6115d2565b9050600081511161165d5760405180602001604052806000815250611688565b8061166784611887565b604051602001611678929190612615565b6040516020818303038152906040525b915050919050565b505050565b61169f83836119e8565b6116ac60008484846116f0565b6116eb576040517f08c379a00000000000000000000000000000000000000000000000000000000081526004016116e290612e78565b60405180910390fd5b505050565b60006117118473ffffffffffffffffffffffffffffffffffffffff16611bb6565b1561187a578373ffffffffffffffffffffffffffffffffffffffff1663150b7a0261173a610f70565b8786866040518563ffffffff1660e01b815260040161175c9493929190612f7f565b602060405180830381600087803b15801561177657600080fd5b505af19250505080156117a757506040513d601f19601f820116820180604052508101906117a49190612fe0565b60015b61182a573d80600081146117d7576040519150601f19603f3d011682016040523d82523d6000602084013e6117dc565b606091505b50600081511415611822576040517f08c379a000000000000000000000000000000000000000000000000000000000815260040161181990612e78565b60405180910390fd5b805181602001fd5b63150b7a0260e01b7bffffffffffffffffffffffffffffffffffffffffffffffffffffffff1916817bffffffffffffffffffffffffffffffffffffffffffffffffffffffff19161491505061187f565b600190505b949350505050565b606060008214156118cf576040518060400160405280600181526020017f300000000000000000000000000000000000000000000000000000000000000081525090506119e3565b600082905060005b600082146119015780806118ea9061300d565b915050600a826118fa9190612ce9565b91506118d7565b60008167ffffffffffffffff81111561191d5761191c611f7e565b5b6040519080825280601f01601f19166020018201604052801561194f5781602001600182028036833780820191505090505b5090505b600085146119dc576001826119689190612c86565b9150600a856119779190613056565b603061198391906129e8565b60f81b81838151811061199957611998613087565b5b60200101907effffffffffffffffffffffffffffffffffffffffffffffffffffffffffffff1916908160001a905350600a856119d59190612ce9565b9450611953565b8093505050505b919050565b600073ffffffffffffffffffffffffffffffffffffffff168273ffffffffffffffffffffffffffffffffffffffff161415611a58576040517f08c379a0000000000000000000000000000000000000000000000000000000008152600401611a4f90613102565b60405180910390fd5b611a6181610f04565b15611aa1576040517f08c379a0000000000000000000000000000000000000000000000000000000008152600401611a989061316e565b60405180910390fd5b611aad60008383611690565b6001600360008473ffffffffffffffffffffffffffffffffffffffff1673ffffffffffffffffffffffffffffffffffffffff1681526020019081526020016000206000828254611afd91906129e8565b92505081905550816002600083815260200190815260200160002060006101000a81548173ffffffffffffffffffffffffffffffffffffffff021916908373ffffffffffffffffffffffffffffffffffffffff160217905550808273ffffffffffffffffffffffffffffffffffffffff16600073ffffffffffffffffffffffffffffffffffffffff167fddf252ad1be2c89b69c2b068fc378daa952ba7f163c4a11628f55a4df523b3ef60405160405180910390a45050565b600080823b905060008111915050919050565b828054611bd590612348565b90600052602060002090601f016020900481019282611bf75760008555611c3e565b82601f10611c1057805160ff1916838001178555611c3e565b82800160010185558215611c3e579182015b82811115611c3d578251825591602001919060010190611c22565b5b509050611c4b9190611c4f565b5090565b5b80821115611c68576000816000905550600101611c50565b5090565b6000604051905090565b600080fd5b600080fd5b60007fffffffff0000000000000000000000000000000000000000000000000000000082169050919050565b611cb581611c80565b8114611cc057600080fd5b50565b600081359050611cd281611cac565b92915050565b600060208284031215611cee57611ced611c76565b5b6000611cfc84828501611cc3565b91505092915050565b60008115159050919050565b611d1a81611d05565b82525050565b6000602082019050611d356000830184611d11565b92915050565b600081519050919050565b600082825260208201905092915050565b60005b83811015611d75578082015181840152602081019050611d5a565b83811115611d84576000848401525b50505050565b6000601f19601f8301169050919050565b6000611da682611d3b565b611db08185611d46565b9350611dc0818560208601611d57565b611dc981611d8a565b840191505092915050565b60006020820190508181036000830152611dee8184611d9b565b905092915050565b6000819050919050565b611e0981611df6565b8114611e1457600080fd5b50565b600081359050611e2681611e00565b92915050565b600060208284031215611e4257611e41611c76565b5b6000611e5084828501611e17565b91505092915050565b600073ffffffffffffffffffffffffffffffffffffffff82169050919050565b6000611e8482611e59565b9050919050565b611e9481611e79565b82525050565b6000602082019050611eaf6000830184611e8b565b92915050565b611ebe81611e79565b8114611ec957600080fd5b50565b600081359050611edb81611eb5565b92915050565b60008060408385031215611ef857611ef7611c76565b5b6000611f0685828601611ecc565b9250506020611f1785828601611e17565b9150509250929050565b600080600060608486031215611f3a57611f39611c76565b5b6000611f4886828701611ecc565b9350506020611f5986828701611ecc565b9250506040611f6a86828701611e17565b9150509250925092565b600080fd5b600080fd5b7f4e487b7100000000000000000000000000000000000000000000000000000000600052604160045260246000fd5b611fb682611d8a565b810181811067ffffffffffffffff82111715611fd557611fd4611f7e565b5b80604052505050565b6000611fe8611c6c565b9050611ff48282611fad565b919050565b600067ffffffffffffffff82111561201457612013611f7e565b5b61201d82611d8a565b9050602081019050919050565b82818337600083830152505050565b600061204c61204784611ff9565b611fde565b90508281526020810184848401111561206857612067611f79565b5b61207384828561202a565b509392505050565b600082601f8301126120905761208f611f74565b5b81356120a0848260208601612039565b91505092915050565b6000602082840312156120bf576120be611c76565b5b600082013567ffffffffffffffff8111156120dd576120dc611c7b565b5b6120e98482850161207b565b91505092915050565b60006020828403121561210857612107611c76565b5b600061211684828501611ecc565b91505092915050565b61212881611df6565b82525050565b6000602082019050612143600083018461211f565b92915050565b61215281611d05565b811461215d57600080fd5b50565b60008135905061216f81612149565b92915050565b6000806040838503121561218c5761218b611c76565b5b600061219a85828601611ecc565b92505060206121ab85828601612160565b9150509250929050565b600067ffffffffffffffff8211156121d0576121cf611f7e565b5b6121d982611d8a565b9050602081019050919050565b60006121f96121f4846121b5565b611fde565b90508281526020810184848401111561221557612214611f79565b5b61222084828561202a565b509392505050565b600082601f83011261223d5761223c611f74565b5b813561224d8482602086016121e6565b91505092915050565b600080600080608085870312156122705761226f611c76565b5b600061227e87828801611ecc565b945050602061228f87828801611ecc565b93505060406122a087828801611e17565b925050606085013567ffffffffffffffff8111156122c1576122c0611c7b565b5b6122cd87828801612228565b91505092959194509250565b600080604083850312156122f0576122ef611c76565b5b60006122fe85828601611ecc565b925050602061230f85828601611ecc565b9150509250929050565b7f4e487b7100000000000000000000000000000000000000000000000000000000600052602260045260246000fd5b6000600282049050600182168061236057607f821691505b6020821081141561237457612373612319565b5b50919050565b7f4552433732313a20617070726f76656420717565727920666f72206e6f6e657860008201527f697374656e7420746f6b656e0000000000000000000000000000000000000000602082015250565b60006123d6602c83611d46565b91506123e18261237a565b604082019050919050565b60006020820190508181036000830152612405816123c9565b9050919050565b7f4552433732313a20617070726f76616c20746f2063757272656e74206f776e6560008201527f7200000000000000000000000000000000000000000000000000000000000000602082015250565b6000612468602183611d46565b91506124738261240c565b604082019050919050565b600060208201905081810360008301526124978161245b565b9050919050565b7f4552433732313a20617070726f76652063616c6c6572206973206e6f74206f7760008201527f6e6572206e6f7220617070726f76656420666f7220616c6c0000000000000000602082015250565b60006124fa603883611d46565b91506125058261249e565b604082019050919050565b60006020820190508181036000830152612529816124ed565b9050919050565b7f4552433732313a207472616e736665722063616c6c6572206973206e6f74206f60008201527f776e6572206e6f7220617070726f766564000000000000000000000000000000602082015250565b600061258c603183611d46565b915061259782612530565b604082019050919050565b600060208201905081810360008301526125bb8161257f565b9050919050565b600081905092915050565b60006125d882611d3b565b6125e281856125c2565b93506125f2818560208601611d57565b80840191505092915050565b600061260a82846125cd565b915081905092915050565b600061262182856125cd565b915061262d82846125cd565b91508190509392505050565b7f4552433732313a206f776e657220717565727920666f72206e6f6e657869737460008201527f656e7420746f6b656e0000000000000000000000000000000000000000000000602082015250565b6000612695602983611d46565b91506126a082612639565b604082019050919050565b600060208201905081810360008301526126c481612688565b9050919050565b7f4552433732313a2062616c616e636520717565727920666f7220746865207a6560008201527f726f206164647265737300000000000000000000000000000000000000000000602082015250565b6000612727602a83611d46565b9150612732826126cb565b604082019050919050565b600060208201905081810360008301526127568161271a565b9050919050565b7f7b226e616d65223a2022535647204e4654222c20000000000000000000000000600082015250565b60006127936014836125c2565b915061279e8261275d565b601482019050919050565b7f226465736372697074696f6e223a2022416e204e4654206261736564206f6e2060008201527f616e20535647222c200000000000000000000000000000000000000000000000602082015250565b60006128056029836125c2565b9150612810826127a9565b602982019050919050565b7f226174747269627574657322203a2022222c2000000000000000000000000000600082015250565b60006128516013836125c2565b915061285c8261281b565b601382019050919050565b7f22696d616765223a202200000000000000000000000000000000000000000000600082015250565b600061289d600a836125c2565b91506128a882612867565b600a82019050919050565b7f227d000000000000000000000000000000000000000000000000000000000000600082015250565b60006128e96002836125c2565b91506128f4826128b3565b600282019050919050565b600061290a82612786565b9150612915826127f8565b915061292082612844565b915061292b82612890565b915061293782846125cd565b9150612942826128dc565b915081905092915050565b7f4552433732313a20617070726f766520746f2063616c6c657200000000000000600082015250565b6000612983601983611d46565b915061298e8261294d565b602082019050919050565b600060208201905081810360008301526129b281612976565b9050919050565b7f4e487b7100000000000000000000000000000000000000000000000000000000600052601160045260246000fd5b60006129f382611df6565b91506129fe83611df6565b9250827fffffffffffffffffffffffffffffffffffffffffffffffffffffffffffffffff03821115612a3357612a326129b9565b5b828201905092915050565b7f45524337323155524953746f726167653a2055524920717565727920666f722060008201527f6e6f6e6578697374656e7420746f6b656e000000000000000000000000000000602082015250565b6000612a9a603183611d46565b9150612aa582612a3e565b604082019050919050565b60006020820190508181036000830152612ac981612a8d565b9050919050565b7f4552433732313a206f70657261746f7220717565727920666f72206e6f6e657860008201527f697374656e7420746f6b656e0000000000000000000000000000000000000000602082015250565b6000612b2c602c83611d46565b9150612b3782612ad0565b604082019050919050565b60006020820190508181036000830152612b5b81612b1f565b9050919050565b7f4552433732313a207472616e73666572206f6620746f6b656e2074686174206960008201527f73206e6f74206f776e0000000000000000000000000000000000000000000000602082015250565b6000612bbe602983611d46565b9150612bc982612b62565b604082019050919050565b60006020820190508181036000830152612bed81612bb1565b9050919050565b7f4552433732313a207472616e7366657220746f20746865207a65726f2061646460008201527f7265737300000000000000000000000000000000000000000000000000000000602082015250565b6000612c50602483611d46565b9150612c5b82612bf4565b604082019050919050565b60006020820190508181036000830152612c7f81612c43565b9050919050565b6000612c9182611df6565b9150612c9c83611df6565b925082821015612caf57612cae6129b9565b5b828203905092915050565b7f4e487b7100000000000000000000000000000000000000000000000000000000600052601260045260246000fd5b6000612cf482611df6565b9150612cff83611df6565b925082612d0f57612d0e612cba565b5b828204905092915050565b6000612d2582611df6565b9150612d3083611df6565b9250817fffffffffffffffffffffffffffffffffffffffffffffffffffffffffffffffff0483118215151615612d6957612d686129b9565b5b828202905092915050565b7f45524337323155524953746f726167653a2055524920736574206f66206e6f6e60008201527f6578697374656e7420746f6b656e000000000000000000000000000000000000602082015250565b6000612dd0602e83611d46565b9150612ddb82612d74565b604082019050919050565b60006020820190508181036000830152612dff81612dc3565b9050919050565b7f4552433732313a207472616e7366657220746f206e6f6e20455243373231526560008201527f63656976657220696d706c656d656e7465720000000000000000000000000000602082015250565b6000612e62603283611d46565b9150612e6d82612e06565b604082019050919050565b60006020820190508181036000830152612e9181612e55565b9050919050565b7f4552433732314d657461646174613a2055524920717565727920666f72206e6f60008201527f6e6578697374656e7420746f6b656e0000000000000000000000000000000000602082015250565b6000612ef4602f83611d46565b9150612eff82612e98565b604082019050919050565b60006020820190508181036000830152612f2381612ee7565b9050919050565b600081519050919050565b600082825260208201905092915050565b6000612f5182612f2a565b612f5b8185612f35565b9350612f6b818560208601611d57565b612f7481611d8a565b840191505092915050565b6000608082019050612f946000830187611e8b565b612fa16020830186611e8b565b612fae604083018561211f565b8181036060830152612fc08184612f46565b905095945050505050565b600081519050612fda81611cac565b92915050565b600060208284031215612ff657612ff5611c76565b5b600061300484828501612fcb565b91505092915050565b600061301882611df6565b91507fffffffffffffffffffffffffffffffffffffffffffffffffffffffffffffffff82141561304b5761304a6129b9565b5b600182019050919050565b600061306182611df6565b915061306c83611df6565b92508261307c5761307b612cba565b5b828206905092915050565b7f4e487b7100000000000000000000000000000000000000000000000000000000600052603260045260246000fd5b7f4552433732313a206d696e7420746f20746865207a65726f2061646472657373600082015250565b60006130ec602083611d46565b91506130f7826130b6565b602082019050919050565b6000602082019050818103600083015261311b816130df565b9050919050565b7f4552433732313a20746f6b656e20616c7265616479206d696e74656400000000600082015250565b6000613158601c83611d46565b915061316382613122565b602082019050919050565b600060208201905081810360008301526131878161314b565b905091905056fe4142434445464748494a4b4c4d4e4f505152535455565758595a6162636465666768696a6b6c6d6e6f707172737475767778797a303132333435363738392b2fa264697066735822122074ecabe12aacf040e5e65eb6fe9b015a4addc63337e78ed8db385a59a0bb589f64736f6c63430008090033",
  "devdoc": {
    "kind": "dev",
    "methods": {
      "approve(address,uint256)": {
        "details": "See {IERC721-approve}."
      },
      "balanceOf(address)": {
        "details": "See {IERC721-balanceOf}."
      },
      "getApproved(uint256)": {
        "details": "See {IERC721-getApproved}."
      },
      "isApprovedForAll(address,address)": {
        "details": "See {IERC721-isApprovedForAll}."
      },
      "name()": {
        "details": "See {IERC721Metadata-name}."
      },
      "ownerOf(uint256)": {
        "details": "See {IERC721-ownerOf}."
      },
      "safeTransferFrom(address,address,uint256)": {
        "details": "See {IERC721-safeTransferFrom}."
      },
      "safeTransferFrom(address,address,uint256,bytes)": {
        "details": "See {IERC721-safeTransferFrom}."
      },
      "setApprovalForAll(address,bool)": {
        "details": "See {IERC721-setApprovalForAll}."
      },
      "supportsInterface(bytes4)": {
        "details": "See {IERC165-supportsInterface}."
      },
      "symbol()": {
        "details": "See {IERC721Metadata-symbol}."
      },
      "tokenURI(uint256)": {
        "details": "See {IERC721Metadata-tokenURI}."
      },
      "transferFrom(address,address,uint256)": {
        "details": "See {IERC721-transferFrom}."
      }
    },
    "version": 1
  },
  "userdoc": {
    "kind": "user",
    "methods": {},
    "version": 1
  },
  "storageLayout": {
    "storage": [
      {
        "astId": 25,
        "contract": "contracts/SVGNFT.sol:SVGNFT",
        "label": "_name",
        "offset": 0,
        "slot": "0",
        "type": "t_string_storage"
      },
      {
        "astId": 27,
        "contract": "contracts/SVGNFT.sol:SVGNFT",
        "label": "_symbol",
        "offset": 0,
        "slot": "1",
        "type": "t_string_storage"
      },
      {
        "astId": 31,
        "contract": "contracts/SVGNFT.sol:SVGNFT",
        "label": "_owners",
        "offset": 0,
        "slot": "2",
        "type": "t_mapping(t_uint256,t_address)"
      },
      {
        "astId": 35,
        "contract": "contracts/SVGNFT.sol:SVGNFT",
        "label": "_balances",
        "offset": 0,
        "slot": "3",
        "type": "t_mapping(t_address,t_uint256)"
      },
      {
        "astId": 39,
        "contract": "contracts/SVGNFT.sol:SVGNFT",
        "label": "_tokenApprovals",
        "offset": 0,
        "slot": "4",
        "type": "t_mapping(t_uint256,t_address)"
      },
      {
        "astId": 45,
        "contract": "contracts/SVGNFT.sol:SVGNFT",
        "label": "_operatorApprovals",
        "offset": 0,
        "slot": "5",
        "type": "t_mapping(t_address,t_mapping(t_address,t_bool))"
      },
      {
        "astId": 962,
        "contract": "contracts/SVGNFT.sol:SVGNFT",
        "label": "_tokenURIs",
        "offset": 0,
        "slot": "6",
        "type": "t_mapping(t_uint256,t_string_storage)"
      },
      {
        "astId": 1785,
        "contract": "contracts/SVGNFT.sol:SVGNFT",
        "label": "tokenCounter",
        "offset": 0,
        "slot": "7",
        "type": "t_uint256"
      }
    ],
    "types": {
      "t_address": {
        "encoding": "inplace",
        "label": "address",
        "numberOfBytes": "20"
      },
      "t_bool": {
        "encoding": "inplace",
        "label": "bool",
        "numberOfBytes": "1"
      },
      "t_mapping(t_address,t_bool)": {
        "encoding": "mapping",
        "key": "t_address",
        "label": "mapping(address => bool)",
        "numberOfBytes": "32",
        "value": "t_bool"
      },
      "t_mapping(t_address,t_mapping(t_address,t_bool))": {
        "encoding": "mapping",
        "key": "t_address",
        "label": "mapping(address => mapping(address => bool))",
        "numberOfBytes": "32",
        "value": "t_mapping(t_address,t_bool)"
      },
      "t_mapping(t_address,t_uint256)": {
        "encoding": "mapping",
        "key": "t_address",
        "label": "mapping(address => uint256)",
        "numberOfBytes": "32",
        "value": "t_uint256"
      },
      "t_mapping(t_uint256,t_address)": {
        "encoding": "mapping",
        "key": "t_uint256",
        "label": "mapping(uint256 => address)",
        "numberOfBytes": "32",
        "value": "t_address"
      },
      "t_mapping(t_uint256,t_string_storage)": {
        "encoding": "mapping",
        "key": "t_uint256",
        "label": "mapping(uint256 => string)",
        "numberOfBytes": "32",
        "value": "t_string_storage"
      },
      "t_string_storage": {
        "encoding": "bytes",
        "label": "string",
        "numberOfBytes": "32"
      },
      "t_uint256": {
        "encoding": "inplace",
        "label": "uint256",
        "numberOfBytes": "32"
      }
    }
  }
}